{
  "_format": "hh-sol-artifact-1",
  "contractName": "AreaCalculator",
  "sourceName": "contracts/AreaCalculator.sol",
  "abi": [
    {
      "inputs": [],
      "stateMutability": "nonpayable",
      "type": "constructor"
    },
    {
      "inputs": [],
      "name": "OWNER",
      "outputs": [
        {
          "internalType": "address",
          "name": "",
          "type": "address"
        }
      ],
      "stateMutability": "view",
      "type": "function"
    },
    {
      "inputs": [
        {
          "internalType": "uint256",
          "name": "length",
          "type": "uint256"
        },
        {
          "internalType": "uint256",
          "name": "height",
          "type": "uint256"
        }
      ],
      "name": "calculateRectangleArea",
      "outputs": [
        {
          "internalType": "uint256",
          "name": "",
          "type": "uint256"
        }
      ],
      "stateMutability": "pure",
      "type": "function"
    },
    {
      "inputs": [
        {
          "internalType": "uint256",
          "name": "length",
          "type": "uint256"
        }
      ],
      "name": "calculateSquareArea",
      "outputs": [
        {
          "internalType": "uint256",
          "name": "",
          "type": "uint256"
        }
      ],
      "stateMutability": "pure",
      "type": "function"
    },
    {
      "inputs": [
        {
          "internalType": "uint256",
          "name": "base",
          "type": "uint256"
        },
        {
          "internalType": "uint256",
          "name": "height",
          "type": "uint256"
        }
      ],
      "name": "calculateTriangleArea",
      "outputs": [
        {
          "internalType": "uint256",
          "name": "",
          "type": "uint256"
        }
      ],
      "stateMutability": "pure",
      "type": "function"
    }
  ],
  "bytecode": "0x60a060405234801561001057600080fd5b503373ffffffffffffffffffffffffffffffffffffffff1660808173ffffffffffffffffffffffffffffffffffffffff16815250506080516103b0610060600039600061010101526103b06000f3fe608060405234801561001057600080fd5b506004361061004c5760003560e01c8063117803e31461005157806312c0f9821461006f578063ab65aa341461009f578063bda1ea67146100cf575b600080fd5b6100596100ff565b60405161006691906101bc565b60405180910390f35b61008960048036038101906100849190610212565b610123565b604051610096919061024e565b60405180910390f35b6100b960048036038101906100b49190610269565b610138565b6040516100c6919061024e565b60405180910390f35b6100e960048036038101906100e49190610269565b61014e565b6040516100f6919061024e565b60405180910390f35b7f000000000000000000000000000000000000000000000000000000000000000081565b6000818261013191906102d8565b9050919050565b6000818361014691906102d8565b905092915050565b600080828461015d91906102d8565b9050600060028261016e9190610349565b9050809250505092915050565b600073ffffffffffffffffffffffffffffffffffffffff82169050919050565b60006101a68261017b565b9050919050565b6101b68161019b565b82525050565b60006020820190506101d160008301846101ad565b92915050565b600080fd5b6000819050919050565b6101ef816101dc565b81146101fa57600080fd5b50565b60008135905061020c816101e6565b92915050565b600060208284031215610228576102276101d7565b5b6000610236848285016101fd565b91505092915050565b610248816101dc565b82525050565b6000602082019050610263600083018461023f565b92915050565b600080604083850312156102805761027f6101d7565b5b600061028e858286016101fd565b925050602061029f858286016101fd565b9150509250929050565b7f4e487b7100000000000000000000000000000000000000000000000000000000600052601160045260246000fd5b60006102e3826101dc565b91506102ee836101dc565b92508282026102fc816101dc565b91508282048414831517610313576103126102a9565b5b5092915050565b7f4e487b7100000000000000000000000000000000000000000000000000000000600052601260045260246000fd5b6000610354826101dc565b915061035f836101dc565b92508261036f5761036e61031a565b5b82820490509291505056fea26469706673582212208cd41de8fcbb524a8a693c27c889d203816cf02f48f5ee4deffc175aeee7b4ff64736f6c63430008180033",
  "linkReferences": {},
  "deployedLinkReferences": {}
}