{
  "_format": "hh-sol-artifact-1",
  "contractName": "AreaCalculator",
  "sourceName": "contracts/AreaCalculator.sol",
  "abi": [
    {
      "inputs": [
        {
          "internalType": "uint256",
          "name": "length",
          "type": "uint256"
        },
        {
          "internalType": "uint256",
          "name": "height",
          "type": "uint256"
        }
      ],
      "name": "calculateRectangleArea",
      "outputs": [
        {
          "internalType": "uint256",
          "name": "",
          "type": "uint256"
        }
      ],
      "stateMutability": "pure",
      "type": "function"
    },
    {
      "inputs": [
        {
          "internalType": "uint256",
          "name": "length",
          "type": "uint256"
        }
      ],
      "name": "calculateSquareArea",
      "outputs": [
        {
          "internalType": "uint256",
          "name": "",
          "type": "uint256"
        }
      ],
      "stateMutability": "pure",
      "type": "function"
    },
    {
      "inputs": [
        {
          "internalType": "uint256",
          "name": "base",
          "type": "uint256"
        },
        {
          "internalType": "uint256",
          "name": "height",
          "type": "uint256"
        }
      ],
      "name": "calculateTriangleArea",
      "outputs": [
        {
          "internalType": "uint256",
          "name": "",
          "type": "uint256"
        }
      ],
      "stateMutability": "pure",
      "type": "function"
    }
  ],
  "bytecode": "0x608060405234801561001057600080fd5b50610307806100206000396000f3fe608060405234801561001057600080fd5b50600436106100415760003560e01c806312c0f98214610046578063ab65aa3414610076578063bda1ea67146100a6575b600080fd5b610060600480360381019061005b9190610169565b6100d6565b60405161006d91906101a5565b60405180910390f35b610090600480360381019061008b91906101c0565b6100eb565b60405161009d91906101a5565b60405180910390f35b6100c060048036038101906100bb91906101c0565b610101565b6040516100cd91906101a5565b60405180910390f35b600081826100e4919061022f565b9050919050565b600081836100f9919061022f565b905092915050565b6000808284610110919061022f565b9050600060028261012191906102a0565b9050809250505092915050565b600080fd5b6000819050919050565b61014681610133565b811461015157600080fd5b50565b6000813590506101638161013d565b92915050565b60006020828403121561017f5761017e61012e565b5b600061018d84828501610154565b91505092915050565b61019f81610133565b82525050565b60006020820190506101ba6000830184610196565b92915050565b600080604083850312156101d7576101d661012e565b5b60006101e585828601610154565b92505060206101f685828601610154565b9150509250929050565b7f4e487b7100000000000000000000000000000000000000000000000000000000600052601160045260246000fd5b600061023a82610133565b915061024583610133565b925082820261025381610133565b9150828204841483151761026a57610269610200565b5b5092915050565b7f4e487b7100000000000000000000000000000000000000000000000000000000600052601260045260246000fd5b60006102ab82610133565b91506102b683610133565b9250826102c6576102c5610271565b5b82820490509291505056fea26469706673582212206f84d201e288e4821f257ac36f0a9bcedc507578ebdb8dd6d2a8c9e56ca15c3764736f6c63430008180033",
  "linkReferences": {},
  "deployedLinkReferences": {}
}